:020000040000FA
:1030000049EF1BF0BDEF1BF0E0EF1BF0EAEF1BF008
:1030100008EF1CF036EF1CF08EEF1CF093EF1CF065
:103020007BEF1CF080EF1CF094EF1CF043EF1CF0E2
:1030300041EF1CF03EEF1CF040EF1CF080EF1AF067
:103040000FEF1BF016EF1BF0AEEF1AF050EF1CF075
:103050004FEF1CF0AEEF1AF0B7EF1AF01AEF1BF0BB
:103060001200000012000000120000001200000018
:103070001200000012000000120000001200000008
:10308000FFFFBC450000D0450100E445070028468D
:10309000040024460500204606001C46030018468E
:1030A00002001446F8001046F8000C46F8000846E6
:1030B000F8000446F80018470C00FA4A0A00024BD0
:1030C00009003E460B00444608004846F8004846C2
:1030D000F800FE471A00B4481B006C481C009048DA
:1030E0001D00FC4822002E49230050493200AA4905
:1030F0003300BC493400E4493500164B36001A4B06
:1031000037001E4B3800224B3900264B3A002A4B21
:103110003B002E4B3C00A84B3D00AC4B3E00B04B5F
:103120003F00B44B4000B84B4100BC4B4200C04B89
:103130004300C44B4400324B45004E474600DC4739
:1031400047000A4B48000C4A4900F2474A00344AFB
:10315000F800BE4AF800000000003E0000013E00FA
:1031600001023E0002053E0003062B0000002B007A
:1031700001032B0004044200000842000109420040
:10318000020A0600000B0600010C0600020D0600F4
:1031900004100600051106000612060007130700BA
:1031A000000E0700010F08000014080001150800B8
:1031B0000216080003170800041808000519080083
:1031C000061A0800071B0700041C0700051D07005E
:1031D000061E0700071F0900002009000121090041
:1031E00002220900032309000424090005250A001E
:1031F00000260A0001270A0002280A0003290A0003
:06320000042A000000009A
:103280000088108812881488168818881E8820885C
:103290002488268828882A882C882E883088FFFF52
:10330000060103510F0BD8B41200DAEC16F039D0D5
:103310000400A8D848E106011FEE60F0E7BE19D00E
:103320001FEE50F0E7BE15D01EEE20F0E7BE11D024
:103330001EEE30F0E7BE0DD01EEE40F0E7BE09D025
:103340001EEE50F0E7BE05D01EEE60F0E7BE01D0E5
:10335000DFD7E1CF01F6E2CF02F6050EE3500F0B07
:1033600006010D6F020EE330700B046F0439001973
:10337000070B09E1020EE350030B17E0FE0F23E0F9
:1033800004D0000E05D0020E03D0030E01D0FF0EB4
:1033900001C6E1FF02C6E2FFE79E010F03E0FF0F57
:1033A00015EC1AF0B5D7D2EF16F0040EE350FF0F6C
:1033B00001E0EBD7000E15EC1AF054D8F4E10F0140
:1033C00030B7FBD7F0D7080E0D632ED0040EE3CF35
:1033D000F6FF030EE3CFF7FFF86A030ED890F63638
:1033E000F736F836FF0FFAE1060EE12607EE00F099
:1033F000F650380BE926080EE6CFEEFFFF0FFCE192
:10340000F6503F0B380A0FE1F85005E1F750330A48
:103410000AE0070A08E0C00EF61617EE00F0B6EC58
:1034200016F0010A01E0ADD7B0D70601066F1AD831
:103430000DE10F0130B7FBD71FEE31F00601065149
:1034400007D80F01356B3087060112000601120004
:1034500004C6E7FFE68E030B0809E66EE66A05C6BA
:10346000E6FF1200060100BB08D07450380B07E0DD
:103470006F886F501F0B20096F6EFF091200000B41
:02348000120038
:103500000096F90E96160501856B640ECEEC16F04A
:103510008C9C8C9A300E8A6E47D861D8050ECEEC02
:1035200016F042D85CD8010ECEEC16F03DD857D834
:10353000010ECEEC16F0200E8A6E36D850D8010E51
:10354000CEEC16F0280E13D8080E11D868D8060E47
:103550000ED80C0E0CD8849F000E68D08A6EC0EC7A
:103560001AF08C8A8C9C58D88A3A56D812008A6EE7
:10357000C0EC1AF08C9A8C9C4FD88A3A4DD8120025
:10358000F00E93128C9A836B846B8C8CEFEC1AF098
:103590000000D4EC1AF0832BD8B4842B02E081BE57
:1035A000F5D70F0E93161200000000000000000077
:1035B00000008C8E000000000000000000000000F1
:1035C00000000000000000000000000000000000FB
:1035D00000000000000000000000000012000000D9
:1035E00000000000000000000000000000000000DB
:1035F00000000000000000000000000000000000CB
:103600000000000000008C9E000000000000000090
:1036100000001200CEEC16F0C7DFE1DF1200010E51
:10362000B7EC1AF0020ECEEC16F0120005017A513A
:1036300080099DD7E83AE830380B400998DF05014A
:10364000876B0900F5508ADF872B87A7FAD716EF1B
:103650001BF0010307030100000000000010181C0C
:1036600018101B131B1B1B1B111F110E1E1D1B17DC
:10367000001F001D1B1D1E0E111F1D19150D001D05
:103680001D1F0206021A0202070001030713191C7C
:103690001810106AF29EFE0EF66EFF0EF76E3F0EC9
:1036A000F86E0900F550066E0900F550076E270AFE
:1036B00011E0F86AF28EEE0E24EC16F00638070BD5
:1036C00024EC16F007507F0B24EC16F01EEC16F0DD
:1036D000F29EFFD7F86AF28E0101006B010EE8CF6F
:1036E00079F01568090ECB6E240ECA6E0F0EBD6EF2
:1036F000040EBE6E41EC66F004EC16F0126E010191
:10370000420E146F156F0F0EE8CF18F3E8CF58F381
:10371000136A146A6CEC5AF02DEC58F030EC57F048
:1037200012500EE1070EA4EC16F0020E78EC16F023
:10373000010E80EC16F0000E7CEC16F09DEC1DF0F6
:10374000BBEC1CF0000E14EC16F0FAEC1DF0CDEC06
:10375000ACF01082100E036E270E046E000EBCEC4F
:1037600016F0000E036E400E046E140E056E540E1D
:10377000A8EC16F0C1EC2AF012001092ADEC69F042
:1037800010B605D0D8EC63F070EC66F005D0F29E70
:1037900010983EB01088F28E74EC1EF0CAEC1DF04A
:1037A0000601FDA104D0FD91FA0E24EC16F00601ED
:1037B000FC5105E0FC07F80E24EC16F0F8D71200D7
:1037C000ADEC1DF010A6BFEC69F0125002E1B0ECB8
:1037D00028F01200120000144D494449626F7853DA
:1037E00049442056322E30343420202040104C6181
:1037F000756E6368696E6720435320202020401057
:103800004353206E6F7420656E61626C6564212085
:1038100082EC16F0D60EF66E370EF76E000EF86ECE
:1038200031501CE09EEC16F0EC0EF66E370EF76E83
:10383000000EF86E125006E0FE0EF66E370EF76EB2
:10384000000EF86E9EEC16F000B608D0520EF66E22
:10385000360EF76E000EF86EE6EC16F01C8210A61F
:1038600004D03EA002D0EFECACF012001250D8A46D
:10387000120010B81200CDEC2AF012009DEF88F073
:1038800012004EEF90F0125208E1E8CF0CF115EC67
:10389000ADF010B612000CC1E8FF2DEF90F0120051
:1038A0000B6E0101F80E0B620BD03D513C6F3D6B6E
:1038B0003F5104083B273F6B3C31E8303F0B3E6FE4
:1038C0000B50FA0A03E0080A01E00CD01E89C2C0BE
:1038D000E8FFE8B2108A3D29800ED8B43D6B3B6BFF
:1038E000030E3F6FFB0E0B6201D01E8BFC0E0B62B2
:1038F00001D01E8D1200125002E1BDEF22F0120025
:103900001250D8A4120003C035F0000E036203D099
:10391000045032EF28F0030656EF28F0125002E16F
:1039200097EC27F0120012001200050E036012003F
:10393000125005E0035004C003F027EF96F0336AFD
:103940003350C6EC16F03E140FE00350AEEC96F088
:10395000E150020FE96EE250040FEA6E04C0EFFF7F
:1039600003C034F062EC41F0332A33A4E9D71200EB
:103970001200120012000301EE6B036A13EEF0F066
:10398000E66AE66A032A03A6FBD701D8F3D7F0DF7D
:103990000301EF6912000301EE6F12000301EE5103
:1039A0001200056E13EEF0F0E834FE0BE126E7504E
:1039B000031804E1010EE350041809E003C0E6FF18
:1039C00004C0E5FF0550C6EC16F00301EF1312002A
:1039D00003C004F0D8900436036AE3D7036E0F0ED9
:1039E000C16ED00E921603500F0B921203B8928A3A
:1039F000F80E96160338E830070B96121200036E85
:103A00008950D00B046E03500F0B041003B820092B
:103A1000896E8D50F80B046E0338E830070B0410E4
:103A20008D6E1200E8B41AD0E8B20CD0E8B005D020
:103A300003B0898003A08990120003B0898203A09B
:103A400089921200E8B005D003B0898403A089945C
:103A5000120003B0898603A089961200E8B20CD048
:103A6000E8B005D003B0898A03A0899A120003B098
:103A70008D8003A08D901200E8B005D003B08D8238
:103A800003A08D92120003B08D8403A08D941200C8
:103A900016511803F4CF1BF1F3CF1AF11751190384
:103AA000F4CF1DF1F3CF1CF116511903F3501B276E
:103AB000F4501C23E86A1D2317511803F3501B27E9
:103AC000F4501C23E86A1D231200E2DF19AF04D072
:103AD00016511C5F17511D5B17AF04D018511C5FA6
:103AE00019511D5B120016511803F4CF1BF1F3CFCF
:103AF0001AF117511803F3501B271C6BF4501C23A9
:103B00001200180E086E096A0A6A180E086EF3345D
:103B1000F436F5360A360936F33607500A5E065093
:103B2000D8A0063C095ED8B0F380F3B003D00926D4
:103B300007500A26082EEBD712003E0EC06E030176
:103B4000E06BE16BF36A13EEE3F0E66AF32AF3A6A7
:103B5000FCD7010EC26EC282120013EEE3F0030125
:103B6000E051E126E750C45C02E2FF0A010F08E0E1
:103B7000FF0F06E0C4CFE7FFE051C6EC16F0E113FB
:103B8000E029070BE06FE035E8341C0B0109C26E39
:103B9000C28212000301F29EE151E16BE26FFF0B62
:103BA000F28E27E0000EE2B11DD8010E0301E2B350
:103BB00019D8020E0301E2B515D8030E0301E2B7CE
:103BC00011D8040E0301E2B90DD8050E0301E2BBC2
:103BD00009D8060E0301E2BD05D8070E0301E2BFB6
:103BE00001D807D0036E13EEE3F0E3CF04F095EFB6
:103BF0001CF012000601006B010E096F0A6BF29EA9
:103C0000FF0EF66EFF0EF76E3F0EF86E0900F550D0
:103C1000270A01E0008BF86AF28E00BB120004EC68
:103C200016F00601036F12E116EE20F0010EE66EAB
:103C3000530EE66E490EE66E440EE66E200EE66EFC
:103C4000020EE66E000EE66E000EE66E09690A6B65
:103C50000E6B16EE10F00F6BE66A0F2B0FA7FCD75A
:103C60000F6B0601100E0017800E88D9800E776E3C
:103C7000000E706EC50E716E010E726E200E736EA8
:103C8000000E0F01606F506F0D01F86B0E01206B7D
:103C9000306B406B506B606B706B0D01010ED46F1D
:103CA000D56B0D01D86B0D01E06BE16BE26BE36B43
:103CB000E46BE56BE66BE76B0D01F06BF16BF26BA0
:103CC000F36B03C605F60601046B076B086B000E69
:103CD0001FEE00F039D90F017F0E186F080E196F13
:103CE0001A6B1B6B000E4AD178EC1EF0ABEF1EF086
:103CF000060103512EE10E053F0B0E6F2AE10F293D
:103D0000070BD8B4010F0F6F16EE10F00F51E352EE
:103D100020E0E30601DA1DE106010F51C6EC16F0C2
:103D200009130FC605F6076B086B030E4FD911E197
:103D3000000EE66E008D19EC20F0009D0AE116EEF3
:103D400010F00F51E36A0F51036ECEEC44F0FF09FF
:103D50001200000B12000400DFD9D8A412006F502B
:103D6000070B9009776E60BE04D0060100B7F3D749
:103D7000120061AE02D0609EEED706016230700B79
:103D8000046F00A704D004390019070B0AE1625040
:103D9000030B2BE0FF0F10E0FF0F1EE022D0000E00
:103DA00005D0020E03D0030E01D0FF0E609E010F5E
:103DB00002E0FF0F93D8CFD7AFD9F7E10F0130B7AB
:103DC000FBD72FEE35F09FEC95F01FEE31F0010E92
:103DD000CBD80F013087E9D72FEE35F0CCEC95F03A
:103DE000E5D7609E000E8DD8E0D76450F00B15E14A
:103DF000645017E0FF0F1CE0FD0F1CE0FF0F1DE0FB
:103E0000FF0F28E0FF0F32E0FF0F38E0FF0F40E028
:103E1000FF0F48E0FB0F50E0C6D7645012EC95F05E
:103E2000C5D70087F80B00170439070B0013B7D765
:103E30000097B5D749EC1BF0B2D7040E6562B3D733
:103E40006950056E6850046E6750036E6650EAEC68
:103E50001BF0A5D7030E6562A6D76850056E6750A4
:103E6000046E6650036E3EEC1CF099D7010E65623D
:103E70009AD76650036E43EC1CF091D7020E656230
:103E800092D76750046E6650036E7BEC1CF087D7A8
:103E9000020E656288D76850046E6750036E80EC2E
:103EA0001CF07DD7030E65627ED76750046E6650A6
:103EB000036E94EC1CF073D7800E60D8400E776EC2
:103EC000000E5CD8500E776E1FEE60F0E1CF01F669
:103ED000E2CF02F680EC19F0C4DE65D70601066F6A
:103EE0001BD90DE10F0130B7FBD71FEE31F00601F2
:103EF00006513AD80F01356B3087060112000601D2
:103F000012000AD91FE10F0130B7FBD71FEE31F0C5
:103F1000000E2AD81FEE35F0080EE66E010EE66E92
:103F2000530EE66E490EE66E440EE66E200EE66E09
:103F3000020EE66E000EE66E000EE66E0F01308792
:103F4000060112000601120005C6E7FFE69E030BFC
:103F50000809E76E04C6E8FFE834E00BE61208C67D
:103F6000E6FF07C6E6FF120004C6E7FFE68E030B76
:103F70000809E66EE66A03C6E6FF1200F36E6F50AC
:103F80001F0BF3106F6E6E50E00BF318FCE1120084
:103F90006FB40ED06FB206D01FEE60F06FB01FEEA0
:103FA00050F012001EEE20F06FB01EEE30F0120046
:103FB0006FB206D01EEE40F06FB01EEE50F0120051
:103FC0001EEE60F06FB01EEE70F012000601066F7C
:103FD0000551C6EC16F0091511E09ED80FE10F014E
:103FE00040B7FBD70601065103C604F61FEE41F0A9
:103FF000ABDF1FEE45F0000B06011200FF090601C2
:1040000012006F50070B9009776E60AE0AD061AE58
:1040100008D0609ED00E24EC16F0000E24EC16F0B2
:10402000F0D70F01408740A703D07450300BFBE05E
:104030001200E7DF08D0E5DF6F50070B9009776EBD
:1040400060AEFAD71AD006010B6B0C6B06010B2B76
:10405000D8B40C2B0CBF58D06F50070B9009776E5B
:1040600060AEF4D761BE09D0D10E24EC16F06050DA
:104070007F0B24EC16F0609EE9D70601009964508E
:10408000056342D06250030B05E0FF0F03E0FF0F12
:1040900036E03AD000AD34D016EE20F00535E834E5
:1040A000E834380BE12666CFE6FF67CFE6FF68CF3E
:1040B000E6FF69CFE6FF6ACFE6FF6BCFE6FF6CCF86
:1040C000E6FF6DCFE6FF6550080A13E1010E666258
:1040D00010D0530E67620DD0490E68620AD0440EAC
:1040E000696207D0200E6A6204D0020E6B6201D0B2
:1040F00007D006010551C6EC16F00A1305D099D772
:10410000609E000B06011200609E06010551C4EC82
:1041100016F00917FF091200060100BB0FD07450FA
:10412000380B0EE06F880601008974AA06D0008B58
:10413000010E0917200E22DF01D093DDFF091200C6
:10414000000B1200F36E16EE10F0E126400EE76E43
:10415000F350C4EC16F0060109171200000E436C70
:104160006F6E696E6720536C61766573400A4164B7
:1041700064726573733A2030780040115761697436
:10418000696E6720666F7220526573657400401116
:1041900021212121204641494C4544202121212132
:1041A000200006010351700BD8A4120082EC16F017
:1041B0005C0EF66E410EF76E000EF86E9EEC16F079
:1041C000080EF36EFF0ECEEC16F0F32EFBD705C6ED
:1041D000E8FFC00924EC16F0000E24EC16F0010EE6
:1041E0000601056F0D0E88EC16F0200E94EC16F00B
:1041F00005C6E8FF98EC16F06C0EF66E410EF76EF1
:10420000000EF86E9EEC16F0060105C6E8FFC00928
:1042100024EC16F0010E24EC16F0060106010551FF
:10422000066E90DF010ECEEC16F0040061DD16EE96
:1042300010F00650E350F6E106010650056FC6EC9B
:1042400016F00915D8B49CD005C6E8FFC00924ECC7
:1042500016F0020E24EC16F00601000E9CD8D8A42D
:104260008FD005C6E8FFC00924EC16F0030E24EC3D
:1042700016F006010F0E8FD8D8A482D005C6E8FF2D
:10428000C00924EC16F0040E24EC16F00601000E12
:10429000F66E300EF76E000EF86EF6500FE14A0E15
:1042A00088EC16F0F85098EC16F0F75098EC16F0F1
:1042B000F65098EC16F0200E94EC16F00400F6CFB1
:1042C00007F6F7CF08F6F83008330733D8900833ED
:1042D0000733D89008330733020E78DE51E1080E19
:1042E000E66E0900F5CFE6FFF650070BFAE1A3DE14
:1042F00047E1F850D2E0F650D0E1F750800ACDE126
:1043000005C6E8FFC00924EC16F0050E24EC16F0F3
:104310000601010E40D805C6E8FFC00924EC16F0DE
:10432000060E24EC16F006017A0EF66E410EF76EBC
:10433000000EF86E9AEC16F006010551066E0400A8
:10434000065000DFD5DC06010650056FC6EC16F0FE
:1043500006010915F4E005C6E8FFC00924EC16F0D3
:10436000070E24EC16F006010601052B030E056569
:1043700039D7C00E24EC16F07F0E24EC16F0120094
:10438000010E09D88E0EF66E410EF76E000EF86E15
:104390009AEC16F0E9D70601076F086B000E16DEDF
:1043A00003E1000EE66E45DE120001030300010387
:1043B00004000103050001030600010307000109D1
:1043C000090001090A0001090B0001090C0001099B
:1043D0000D000B0000000B0001000B0002000B00A1
:1043E00003000B00040003020200030204000200A9
:1043F000020002000300040101000402030004069D
:1044000008000409090004090A00FF000000FF0178
:104410000000FF020000FF030000FF040000030390
:104420000300030304000303050003030600030362
:1044300007000309090003090A0003090B00030927
:104440000C0003090D000A0000000A0001000A0028
:1044500002000A0003000A0004000603030006032A
:104460000600050002000500030007000300070422
:104470000400070405000704060007040700FF0006
:104480000000FF010000FF020000FF030000FF0426
:104490000000030101000301020003010300030106
:1044A00004000301050003060600030607000306D7
:1044B00008000306090003060A00060000000600C3
:1044C00001000600020006000300060004000000D0
:1044D00000000000000004000200040003000000CF
:1044E00000000000000000000000000000000000CC
:1044F0000000FF000000FF010000FF020000FF03BA
:104500000000FF0400000103030001030400010395
:104510000500010306000103070001090900010964
:104520000A0001090B0001090C0001090D00090036
:104530000000090001000900020009000300090051
:10454000040003030300030305000200020002004D
:104550000300040002000404040004040500040431
:10456000060004040700FF000000FF010000FF0236
:104570000000FF030000FF04000004A0FCEC16F0A4
:10458000FDEC40F0820EF66E300EF76E000EF86E07
:104590000900F550066E0900F5CF07F0F5100DE0A3
:1045A0000900F55009000318F3E1F29E05000650DA
:1045B000FD6E0750FE6EF28E1200120004B0120063
:1045C00010B86AD30350DEEC16F0FF0E32EF28F07D
:1045D00004B0120010B860D30350DEEC16F0010EE8
:1045E00032EF28F0315004E004B01200D1EF20F097
:1045F0002B9E04A02B8E04B0120010B8DFEFACF09D
:104600005DEF2EF0090E11D0080E0FD0070E0DD061
:10461000060E0BD0050E09D0040E07D0030E05D0F0
:10462000020E03D0010E01D0000E04B0120010B82B
:1046300033D31EB467EF43F022243FEF2EF0000E79
:10464000066E02D0010E066E1C8204B02BD03E50C6
:10465000F00B03E00F0E3E1228D0100E3E12065053
:1046600010E02BA037EF23F00C0E3E121ED03E348C
:104670000F0BD8B4010E066EF00E3E1606503E1219
:1046800014D02BA047EF23F0030E3E120ED03E5065
:104690000F0BE830D8B4080E066EF00E3E1606502A
:1046A0003E1203D00F0E3E161200FDEC40F0DBEC84
:1046B00041F0E7507F0B2F6EE2EC41F0E750070B23
:1046C000306E1F50C00B08E110EE50F010CBE8FF29
:1046D000030B4D6E1FC0E3FFC3EC44F00AEC41F046
:1046E0001F50C00B0CE110CBE8FF4D18030B07E087
:1046F00010EE50F010CBE8FF030BE350ADDA27ECDF
:104700002EF0B2DA3EA007D010A605D0EFECACF048
:1047100010884EEC26F0120010B8BED22B9004A0E8
:104720002B801E9404A01E841C82120004B0120070
:1047300010B8B2D22B7298D204B0120010B8ACD21A
:104740002B742B982BB42B880A0E266E8DD204B0B6
:10475000120010B8A1D2C6C0E8FF070B04E0000E9B
:1047600097EC42F039D03E50F00BF00A25E11D5095
:10477000F00B11E1F29EF00E1D12F28E336AB5ECD1
:1047800042F0332AB5EC42F0332AB5EC42F0332A3A
:10479000B5EC42F021D0F29E0F0E1D16F28E336A58
:1047A000BBEC42F0332ABBEC42F0332ABBEC42F0C4
:1047B000332ABBEC42F010D0000E3EB0A1EC42F028
:1047C000010E3EB2A1EC42F0020E3EB4A1EC42F06A
:1047D000030E3EB6A1EC42F01C84120004B012009D
:1047E00010B85AD23F28030BD8B4010F3F6E1C8477
:1047F000120004B0120010B84FD2420E2AD204B0F8
:10480000120010B849D283EC30F01F182CE110CB05
:10481000E8FFE8B220D0E8B016D04250070B010DF7
:104820003E0EF324F66E480EF420F76EF86A000E82
:10483000F8220900F550416E14EC2FF014D000015D
:104840000203060606003F28030BD8B4010F3F6E93
:10485000010E426E08D0E8B003D0010E426E03D0C4
:10486000010E426E00D083EC30F0F3D104B01200A0
:1048700010B812D210CBE8FF030B020AD8B4120012
:10488000010E036E000E046E83EC30F07BEF2FF010
:1048900004B0120010B800D210CBE8FF030B020ADC
:1048A000D8B41200020E036E000E046E83EC30F0DA
:1048B0007BEF2FF004B0120010B8EED1432A030EA4
:1048C0004360436A43A283EC30F043B28DEC30F096
:1048D000C0D9435002E1030E0CD043B209D010CB33
:1048E000E8FF030B020A02E1060E03D0090E01D015
:1048F000000E226E236E1C88A2EF2AF004B0120074
:1049000010B8CAD187EC30F01F1804E087EC30F003
:1049100029EF26F010CBE8FF030B000ED8A4010E00
:10492000036E000E046E87EC30F07BEF2FF004B0C6
:10493000120010B8B1D110CBE8FF030B010ED8A4C0
:10494000020E036E000E046E87EC30F07BEF2FF04A
:1049500004B0120010B8A0D189EC30F01F1816E195
:1049600010CBE8FFE8B210D0E8B008D0000E036E1C
:10497000000E046E89EC30F07BEF2FF03F28030B24
:10498000D8B4010F3F6E02D0E8B000D089EC30F00F
:1049900060D104B0120010B87FD1070E036E030E71
:1049A000046E89EC30F07BEF2FF004B0120010B8E9
:1049B00073D1462A020E4660466A56D104B01200F0
:1049C00010B86AD185EC30F01F1804E085EC30F0A7
:1049D00029EF26F0010E036E000E046E85EC30F018
:1049E0007BEF2FF004B0120010B856D185EC30F0F8
:1049F0001F1804E085EC30F029EF26F0040E036E5A
:104A0000000E046E85EC30F07BEF2FF004B0120046
:104A100010B842D110CBE8FF020B020A050ED8A451
:104A2000060E036E010ED8A4020E046E85EC30F063
:104A30007BEF2FF004B01200FDEC40F010CBE8FF4C
:104A4000E8B220D0E8B215D06CCB06F006700BEEC1
:104A50006CF030D80BEE7CF02DD80BEE8CF02AD811
:104A60000BEE9CF027D80BEEACF024D80BEEBCF08C
:104A700021D06CCB06F006700BEE6CF01BD80BEE61
:104A8000BCF018D0E8B201D012006CCB06F0067072
:104A90000BEE6CF00FD80BEE9CF00CD80BEECCF0BC
:104AA00009D80BEEFCF006D80CEE2CF003D80CEE77
:104AB0005CF000D0EF9006B0EF8034EF41F004B02E
:104AC000120010B8E9D08DEC30F0C3D010B8E4D0AB
:104AD00004A009D01FAE02D01C8212001C9C1C94A2
:104AE000266A1C961200010EDDEF2FF010B8D4D00C
:104AF00004B0F0D7FF0EDDEF2FF02BB096EF23F0D0
:104B0000E5D72BB09CEF23F0F1D704B0120010B81A
:104B1000C3D02B7AA9D0000E0DD0010E0BD0020EFF
:104B200009D0030E07D0040E05D0050E03D0060EE3
:104B300001D0070E496E10B8AFD004A005D049507F
:104B4000C4EC16F03C1619D03C5003E02B7A34EC40
:104B500026F04950C6EC16F03C1210CBE8FFE8B244
:104B600016D0E8B00BD03A6A4850C6EC16F03B14A9
:104B700004E048C047F0495079D812000BEE8CF0A1
:104B800049C0EFFF34EC41F049C02DF06DD0E8B0E2
:104B90000AD00BEE51F049C0EFFF34EC41F049C0B0
:104BA0002DF062D012001200000E0DD0010E0BD0BD
:104BB000020E09D0030E07D0040E05D0050E03D057
:104BC000060E01D0070E04A004D0C4EC16F03B166C
:104BD0001200486E476E10B85FD010CBE8FFE8B205
:104BE0002CD0E8B021D04750C6EC16F03B123A6A00
:104BF0004950C6EC16F03C1402E0495037D82BB0AF
:104C000003D08BEC30F025D01E944850FE0B01E011
:104C100005D04850456E89EC30F01BD04850FE0F4F
:104C2000446E87EC30F015D00BEEDCF048C0EFFF9F
:104C300034EC41F048C02DF017D0E8B009D047C09F
:104C40004AF0010E06D8020E236E226A9DEF2AF06A
:104C500012001F6201D008D01F6E236A226AFFEC87
:104C60002BF01C88A2EC2AF01C8412001C84346EE9
:104C70000BEE00F0DDEC38F03F50181A336A335079
:104C8000C6EC16F03E1404E00BEE00F0C8EC38F071
:104C9000332A33A4F4D712000AEFADF0FDEC40F054
:104CA00088D810CBE8FF030B010A01E002D03F5087
:104CB000426E4350C6EC16F0070B066E10CBE8FFB1
:104CC000030B020A0CE0010E346ED2EC31F0EF3827
:104CD000F00BEFB8000E0612EF38E830030B2BAAEA
:104CE00008092BBA0409076E10CBE8FF030B04E098
:104CF000030A02E03F3804D04550C6EC16F0E8380D
:104D0000300B07124650C6EC16F0E83AE836E834A5
:104D1000C00B0712000E346E03EC32F0EFCF08F038
:104D20004450C6EC16F03F0B096E3F50E83AE836A7
:104D3000E834C00B091210CBE8FFE8B206D0E8B0A7
:104D400002D0000E07D0140E05D0E8B002D0000E3D
:104D500009D0140E346E16EC32F0EF380F0BD3D8A6
:104D6000EFA0000E0A6E1D50F00BD8A40A8C46B2BC
:104D70000A8E5A0EF66E310EF76E000EF86E0900AE
:104D8000F550E96E0900F5CFEAFFF51011E00900D2
:104D9000F550C6EC16F0EF14D8A4010E036E09000E
:104DA000F550F5AE60EC16F0F5BE12EC1DF0E7D74D
:104DB000120010B8120010EE60F010CBE8FFE8B25D
:104DC0004BD0E8B027D01D962BBC12003FB011D0BD
:104DD00005CCE6FF0DCCE6FF15CCE6FF1DCCE6FFCB
:104DE00025CCE6FF2DCCE6FF35CCE6FF3DCCE6FF3B
:104DF000120004CCE6FF0CCCE6FF14CCE6FF1CCC82
:104E0000E6FF24CCE6FF2CCCE6FF34CCE6FF3CCC1E
:104E1000E6FF12003EB012001D966AD80B0170A387
:104E20000FD08C51F80B0CE18C51C6EC16F0076ECC
:104E300010EE60F0080E066E07C0E6FF062EFCD7E7
:104E4000C0A309D0DC51F80B06E110EE60F0DC5194
:104E5000070BE126E7681200E8B017D03EB0120059
:104E60001D9646D80B0150AD0FD05151F80B0CE1F7
:104E70005151C6EC16F0076E10EE60F0080E066E8B
:104E800007C0E6FF062EFCD712003EA003D030D8A4
:104E90002BBC12001D964050080DC00EF324F66E78
:104EA0004E0EF420F76EF86A000EF82210EE60F055
:104EB000080EF36E0900F5CFE6FFF32EFBD71200C4
:104EC0000040447F7F40400000627351494F4600DC
:104ED00000226349497F360000181814167F7F109E
:104EE00000276745457D3900003E7F494973320000
:104EF00010EE60F020EEE8F0F36AE66ADE6AF32A6C
:104F0000F3A6FBD712000F0BC8EC16F0010C020C35
:104F1000040C080C100C110C120C140C180C1F0CA7
:104F20001F0C1F0C1F0C1F0C1F0C1F0C120039280C
:104F3000070B396ED8B43A2A3950C6EC16F0036E16
:104F4000060E68EC16F0315007E03950CC183118D5
:104F5000C6EC16F0036E37D010B802D01DA61ED0D6
:104F600010EEE8F03950E126E750D8A4E706D8A4BF
:104F7000E706E75011E0460EF66E500EF76E000E93
:104F8000F86EE730E830E830070BF626000EF7221F
:104F9000000EF8220900F550FF0A09D02BBC03D0FF
:104FA00010EE60F002D010EEE8F03950E31C036E12
:104FB0003A50380B08E13C50031A3950C6EC16F051
:104FC0003B14D8A4031E070E68EC16F0120010EE76
:104FD000E8F0E126800E03260350F00B800A02E180
:104FE000E76A12000338E8A604D0E8B4070E040903
:104FF00003D0E8A4000E030B070B360FF66EF76A1A
:10500000500EF722F86A000EF8220900F5CFE7FFEC
:10501000120010EEE8F0E1260338E830070B3E0FEF
:10502000F66EF76A500EF722F86A000EF8220900B1
:10503000F5CFE7FF120078381808080C0E0F8040F3
:1050400020100804020180C0E0F0F8FCFEFF070B0E
:10505000C8EC16F0040C010C050C020C060C030C39
:10506000000C070C366E10B80AEFADF01CBCDBEF7D
:105070002FF01EB41C821E941FBE34EC2EF010EED6
:1050800018F01AC003F01BC004F03650DCEC16F028
:105090001FAE07D02BAE6AEF2EF018C011F068EFEC
:1050A0002EF01CA8AEEF2EF0B6EF2EF00450366EA8
:1050B000056E10B80AEFADF01EB41C821E94FDEC14
:1050C00040F0040E036407D0060E03640AD0080EF5
:1050D00003640AD00CD0035043B0050F43B20A0F4B
:1050E0000AD003500A0F07D003500A0F04D0035010
:1050F0000A0F46B0050FF56E10CBE8FF030B740DD9
:10510000AA0EF324F66E430EF420F76EF86A000E32
:10511000F822F534E834FC0BF626000EF722000ED8
:10512000F8220900F550066E1AE00900F5CF04F0E8
:105130000900F5CF03F0062803E00650BEEF2FF07C
:105140001F507F0B0CE004500F0B2224036E2450E1
:10515000036005D022C004F01F50BEEF2FF01200F4
:105160005650D8A45606252E1200640E256E2750E0
:10517000D8A42706D8A41200262A000174517F0B58
:10518000D8A4740775517F0BD8A4750776517F0B8F
:10519000D8A4760777517F0BD8A47707315003E066
:1051A000310401E031062BB402D01FBE12002B984F
:1051B0002BB42B882650040A04E02650140A04E07D
:1051C00012001C861C841200266A1C962BA402D096
:1051D0002BB62B981C841200EF0FD8B0EF0E110FD6
:1051E000C8EC16F010D010D017D029D00FD1FCD0B9
:1051F00001D106D122D12CD130D140D179D19DD14C
:105200002FD076D0C1D012001CA8236A1CA8226A15
:10521000E9507F0B97D112001CA8236A1CA8226AB0
:10522000FDEC40F0DBEC41F0E7507F0B2F6EE2EC41
:1052300041F0E750070B306E8FEC30F083D11CA8A3
:10524000236A1CA8226A11C02EF0460E7BD14010A2
:105250002D2D2D2D2D20434F5059202D2D2D2D2D11
:105260001D8410CBE8FF030B020A1AE013EE80F056
:105270000CEE00F02D38700BE912346A3450EBCF8D
:10528000E3FF100EE126800EE9263450EBCFE3FF5A
:10529000F00EE126800EE926342A34A8EFD70ED08E
:1052A00013EE80F00CEE00F02D50200DF350E926A7
:1052B000346AEECFE6FF342A34AAFBD74E0EF66EE0
:1052C000520EF76E000EF86E0BD1120040102D201A
:1052D00042756666657220456D707479202D4010A8
:1052E0002D2D2D2D205041535445202D2D2D2D2079
:1052F0001DA43AD010CBE8FF030B020A1CE00CEE11
:1053000000F02D38700BE912346A13EE80F034503F
:10531000E3CFEFFF34EC41F0800EE92613EE90F07E
:105320003450E3CFEFFF34EC41F0810EE926342A0C
:1053300034A8EBD712D00CEE00F02D50200DF35016
:10534000E926346A13EE80F03450E3CFEFFF34ECFB
:1053500041F0EE50342A34AAF5D7DE0EF66E520E26
:10536000F76E000EF86EBCD0CC0EF66E520EF76ED5
:10537000000EF86EB5D040102D2D2D2D20436C65FC
:105380006172202D2D2D2D2010CBE8FF030B020A7A
:1053900016E00CEE00F02D38700BE912346A800E26
:1053A000EF6E34EC41F0800EE926400EEF6E34ECE7
:1053B00041F0810EE926342A34A8F1D70ED00CEE44
:1053C00000F02D50200DF350E926346AEF6A34ECDA
:1053D00041F0EE50342A34AAF9D7760EF66E530E09
:1053E000F76E000EF86E7CD011D8245023601200A6
:1053F00092EF2CF00BD8245023601200ABEF2CF06E
:1054000005D8245023601200B2EF2CF02450236002
:1054100012001C88266A1C961C8408EC2FF0040ECF
:10542000DCEC2EF00900F5CF1AF00900F5CF1BF0E7
:10543000000EC8DB27EC2EF012002450236012006F
:10544000E5DF182A1A281860186AB6EC2EF07CD00E
:1054500034506FEC60F025EF42F040503BEC61F0CF
:105460000BEE60F040500A0DF350E9260A0E066E6E
:1054700034EC41F0EE50062EFBD712002FC013F093
:1054800030C014F0145013100AE034EC65F007E05B
:10549000CE0EF66E540EF76E000EF86E21D0326A04
:1054A0001C8A06EF2AF0BC0EF66E540EF76E000E44
:1054B000F86E16D846EC2FF01C98AED640102D2D65
:1054C0002053617665205061746368202D2D401053
:1054D0002D206E6F7420706F737369626C65202D60
:1054E0009AEC16F0180E10EC55F0400EFAEF16F08C
:1054F0002E5004E091EC65F001E0CAD7140EF66E70
:10550000550EF76E000EF86E10D82EC011F025EC77
:105510002FF095D640132D2D205361766520456ED2
:1055200073656D626C65202D2D009AEC16F0150EDA
:1055300010EC55F0400EFAEF16F0326A1E801E9203
:1055400006EF2AF01CA80BD01C981C9A1E901C9EDB
:105550001C84266A1C96000E35DB79DB68D31F6E2F
:105560001C82000E2FD3800EEDD71CA8236A1CA826
:10557000226A000EE7D71CA8236A1CA8226A400EE4
:10558000E1D7800E1F6E180E316E010E3E6E030EB7
:105590003F6E2B9A96EC27F012003AEC44F0315013
:1055A000D8A41200FDEC40F0C3EC45F0D8A41200E2
:1055B0001DA203D01D920AEF41F07AEC42F0F29E58
:1055C0002B9C2BBA2B8C3C50D8A42B9CF28E1CA26B
:1055D00022D01C921C84266A1C961C9C1C9E14ECD7
:1055E0002FF01EB407D00BD9FDEC40F0000EEADA24
:1055F0002EDB1DDB286A1C8080EC44F01CA012000E
:105600001EB409D01FAE07D0450E88EC16F04EEC44
:1056100055F038EC2BF01CA04EEF26F02750D8A404
:1056200012005850D8A4E8D0285011E1545005E099
:10563000140A02E1565001E0B6D05650D8A4120028
:105640001CA412001C94320E566E4EEC26F01EB4B2
:10565000EAD01FAE9ED01CBC9BD0FDEC40F0285081
:1056600007E0FF0F19E0FF0F21E0FF0F2BE044D010
:10567000050E88EC16F0E2EC41F0146EDBEC41F024
:10568000136E25EC55F034EC65F0200ED8A42A0EEC
:1056900094EC16F0282A7CD0000E88EC16F014EC5E
:1056A00055F07C0E94EC16F0282A72D00A0E88EC85
:1056B00016F010CBE8FF3CEC55F0020E10EC55F064
:1056C000282A66D00E0E88EC16F0430E94EC16F0E5
:1056D000680E94EC16F06E0E94EC16F02E0E94EC10
:1056E00016F010EE70F03350030BE126E7287F0B25
:1056F00090EC16F0282A4CD0400E88EC16F009C623
:10570000F3FFC6C0E8FF070B0FE01DA80DD0500E39
:1057100094EC16F06F0E94EC16F06C0E94EC16F000
:10572000790E94EC16F030D02D0E1DB8500E3EA020
:1057300003D0310E1DB8020EF3A02A0E94EC16F021
:105740002D0E1DBA500E3EA203D0320E1DBA030E0E
:10575000F3A22A0E94EC16F02D0E1DBC500E3EA4A2
:1057600003D0330E1DBC040EF3A42A0E94EC16F0E5
:105770002D0E1DBE500E3EA603D0340E1DBE050ECE
:10578000F3A62A0E94EC16F07C0E94EC16F0286A20
:1057900012000C0E00A684EC16F00400020EA0EC21
:1057A00030F0CCEF16F054065450C00988EC16F0D7
:1057B00055281AE0545018E0FF0F18E0EF0F18E0DA
:1057C000FF0F12E05550200A0DE05450FE0FF36E0B
:1057D00055300F0BF35C02E005E306D055B002D064
:1057E0002D0E08D03D0E06D0200E04D05B0E02D048
:1057F0005D0E00D094EF16F058062BEF48F01FBE58
:105800001200000EA0EC30F0C2EC16F0F86A0900AD
:10581000F5CF24F00900F5CF57F0F6CF20F0F7CF01
:1058200021F0F86A04D2285003E1F1EC42F002D0F2
:1058300009EC43F0282A010E28641200286A12009D
:10584000000A456E73656D626C653A2028502AE146
:105850001CBC28D01FAC17D0400EF66E580EF76E49
:10586000000EF86E9EEC16F014EC55F01150D8A412
:1058700091EC65F0200ED8A42A0E94EC16F0050EDB
:1058800010EC55F00FD0000E88EC16F0FDEC40F057
:105890004EEC55F0E2EC41F0146EDBEC41F0136E8F
:1058A00025EC55F0400E4DEC2DF0282A2850050A25
:1058B000D8A41200400E0DD9286A12001CBA71D06B
:1058C0001EB09ED01CBC05D01CBE03D0000E4DECFB
:1058D0002DF01CBE03D0400E8BEC2DF0282A285052
:1058E000050AD8A41200000EF4D8286A00B61200E7
:1058F0001CA812002450236012001CBE120022506B
:10590000235C040DF350420F88EC16F012000014D3
:10591000506172616D657465722041737369676E61
:105920002E3A20201C8E0E0EF66E590EF76E000ECB
:10593000F86E9EEC16F0400E88EC16F01850C8EF8A
:1059400055F0000750617463683A20000007426117
:105950006E6B3A2020004C0EF66E590EF76E000E5C
:10596000F86E07D0420EF66E590EF76E000EF86E06
:1059700000D01C8E9EEC16F0FDEC40F0E2EC41F005
:10598000146EDBEC41F0136E25EC55F0090E10ECB3
:1059900055F0400E88EC16F0AFEC55F0040E10EF09
:1059A00055F01CBC08D0000E88EC16F04EEC55F0FB
:1059B000180E10EC55F01CB606D0325088EC16F0DC
:1059C000200E94EC16F0EA0EF66E590EF76E000EED
:1059D000F86E9EEC16F000B61200325088EC16F00D
:1059E0000E0E00A684EC16F01200401453415645EA
:1059F00020203C2020203E202044656C20436C72F7
:105A00001CBC22D0000E88EC16F053EC3EF0200EA9
:105A100094EC16F01EB20CD02D288EEC16F05F0E12
:105A200094EC16F04A50070B010F8EEC16F009D0DB
:105A3000520E94EC16F06F0E94EC16F0740E94EC7B
:105A400016F0140E10EC55F01EB208D01CB606D09D
:105A5000325088EC16F0200E94EC16F0840EF66EA0
:105A60005A0EF76E000EF86E9EEC16F000B612009D
:105A70001EB21200325088EC16F00E0E00A684EC16
:105A800016F01200401447415320526F7420526E9A
:105A90006420436C722044524D20066E2850040D41
:105AA000F350061088EC16F0A7D928500A0DF350D1
:105AB0002926F4502A2222502824010F246004D0E1
:105AC000040E10EC55F004D04FD8200E94EC16F0D4
:105AD0001200130F88EC16F01CB81AD0060E2460C2
:105AE00002D0200E16D0225009E02450FB0F226273
:105AF0000AD000A6000E00B6080E0BD000A6010EBC
:105B000000B6090E06D000A6070E00B6090E01D099
:105B1000200E94EF16F0066E2850040DF350061078
:105B200088EC16F069D928500A0DF3502926F45054
:105B30002A2222502824010F246008D08FEC30F054
:105B40001F1811E0040E10EC55F00DD0225028243F
:105B5000236208D01CB606D01CA804D0040E10EC9A
:105B600055F001D02BD81200010E26D90800240EC2
:105B7000F5621BD0240E1DA094EC16F022042824FC
:105B8000346E82EC32F00AE13C0E94EC16F02D0EED
:105B90001DB094EC16F03E0E94EF16F0E950800F15
:105BA0001DB092EF16F098EF16F0030E066E090086
:105BB000F55094EC16F0062EFAD7120004D90350D3
:105BC0007AEF39F0F36EFF0B09E11FBE07D01CB866
:105BD00005D0010E036EF35074EF16F01A50E00B6F
:105BE0001B1007E1000E056E010E036EF35074EFFB
:105BF00016F01B50F30B10E11B500CE11A50800BF8
:105C000007E11A50C00B02E1000E07D0020E05D0CA
:105C1000030E03D0050E01D0070E2BB0FE0F046E4D
:105C200004BE046A020E036EF35074EF16F01CB843
:105C300012001FBE08D024042450FB0FD8A0000E71
:105C40001A6E1B6A12007F0E1A6E1B6A12001CA8C5
:105C500005D0DED8B8D80550E6EF32F01FBE04D02C
:105C60002250186E196A12002BAE02D0115004D0C7
:105C7000FDEC40F0DBEC41F0186E196A12001CA03C
:105C800012001CBE12001CBA77D21EB0D1D21FAEB9
:105C900006D0FF0BD8B4BBEF2AF0B5EF2AF0236E85
:105CA000186E276A1C84266A1C96245023601200F2
:105CB000AFD889D80450ECEF28F01CA01200276A56
:105CC000286A1FBE1200040EA0EC30F0CCEF16F0D4
:105CD00030EF57F032D8FDEC40F0E2EC41F0146EBA
:105CE00018507F0B136E336A3350C6EC16F03E1417
:105CF00016E0DBEC41F013C0E7FFE2EC41F014C02A
:105D0000E7FF73EC42F000EE81F013C0EFFF4BECC5
:105D100041F000EE80F014C0EFFF4BEC41F0332A6D
:105D200033A4E2D7FDEC40F0120007D8DBEC41F0E1
:105D300018507F0BE76E73EF42F02BA412002BA6D6
:105D400012002B96FDEC40F0DBEC41F0E7507F0BAE
:105D50002F6EE2EC41F0E750306E98D018503F0BB8
:105D6000236E226E1C84266A1C96120051D82B8644
:105D7000336A3350C6EC16F03E1404E026D80550C2
:105D8000E4EC32F0332A33A4F4D71DD80350570A79
:105D900009E00C0A07E06A0A05E0390A07E00F0A81
:105DA00003E005D0BFDD03D0D6DD01D0DBDD1C84F0
:105DB0000A0E266E1C8612002924F66E000E2A207A
:105DC000F76EF86A1200FDEC40F00BEE00F029C00F
:105DD000F6FF2AC0F7FFF86A0900F550346EE9268D
:105DE000060EEADF0900F5CF03F00900F5CF04F055
:105DF0000900F5CF05F0120020C029F021C02AF0DB
:105E0000F86A22500A0DF3502926000E2A221200A9
:105E100020C029F021C02AF0F86A23500A0DF3505F
:105E20002926000E2A221200415002D8426E12008A
:105E3000F90FD8B0F90E070FC8EC16F0010C020CE0
:105E4000040C030C050C060C070C2E5003E091EC1F
:105E500065F01BE12EC011F0336A335003E1EFEC23
:105E600057F009D00DEC46F009C6F3FF3350C6ECED
:105E700016F0F31403E03350BEEC57F0332A33A48A
:105E8000ECD726EC58F02DEC41F01200FDEC40F080
:105E90002FC013F030C014F034EC65F028E1A96A8B
:105EA000AA6A04001BEE00F0A950E126AA50E222E3
:105EB0004CEC65F0A950F5E1010EAA64F2D7DBECD9
:105EC00041F013C0E7FFE2EC41F014C0E7FF00EE41
:105ED00081F013C0EFFF4BEC41F000EE80F014C0F6
:105EE000EFFF4BEC41F0335002E034EC47F012008E
:105EF0002B861C8412001CA012000A6E1FC04DF0DD
:105F000023C04FF022C04EF01F6E79DC03C023F097
:105F100004C022F006EC2AF018501A64FF0E010F9C
:105F2000186E24DFA2EC2AF04D500A1807E14DC08C
:105F30001FF065DC4EC022F04FC023F01C8412001D
:105F40001CA012000A6E1FC04DF023C04FF022C0EB
:105F50004EF01F6E54DC03C023F004C022F006ECA8
:105F60002AF0187003DFA2EC2AF04DC01FF047DCC6
:105F70004EC022F04FC023F01C8412001CA012005F
:105F800005C00AF01F6E3BDC03C023F004C022F002
:105F900006EC2AF010EE18F01AC003F01BC004F053
:105FA0000A50DCEC16F003B0E1DE35500BDEA4EC59
:105FB0002AF01C841200039001D00380066A062A8E
:105FC000E8BE06681FAE04D0130E2BBE110E07D01C
:105FD000090EA0EC30F00900F550D8B486D0E96E77
:105FE000EA6A130A03E1DBEC41F0136E0900F55095
:105FF0001FBE7F0E076E03B00CD00650EF2606BE04
:1060000004D00750EF60EF6E10D00750EFBEEF6A7C
:106010000CD00650EF2606BE05D00750010FEF60EA
:10602000EF6A03D00750EFBEEF6E1FBE1AD00B0E03
:10603000A0EC30F00900F5500D0A03E01F0A06E05D
:1060400010D014EC2FF000EE42F00BD006BE04D0BE
:10605000EF50D8B4EF2A05D0EF50D8B4EF04030BBB
:10606000EF6E1EB04BD0E950130A03E0020A05E0C0
:1060700006D013C018F02EDE41D02ADE3FD0000E2D
:1060800088EC16F05B0E94EC16F0060EA0EC30F0E7
:10609000030E9CEC16F00B0EA0EC30F00900F5504E
:1060A000100A0BE1080EEF6404D0EF2890EC16F014
:1060B0000AD0EF288EEC16F006D0200E94EC16F0E5
:1060C000F5507AEC39F05D0E94EC16F0200E94EC5D
:1060D00016F00C0E00A684EC16F00FD0000C5B4EF0
:1060E0006F742068657265215D20DC0EF66E600EAF
:1060F000F76E000EF86E9EEC16F01C8C1C841CA82B
:10610000120006EF2AF0000E0BD0040E09D0080E84
:1061100007D00C0E05D0100E03D0140E01D0180EAF
:10612000F36E10CBE8FF030BF3247E0FF66EF76AD5
:10613000920EF722F86A000EF8220900F5501200BC
:10614000E16E10CBE8FF030B1FBC040E020D9A0E8C
:10615000F324F66E920EF420F76EF86A000EF82221
:10616000C2EC16F0F86A1F503F0B0C0DF350E124FF
:10617000F626F450F72212001CA01200066E2250E0
:10618000065E276A1C84266A1C96FDEC40F00650C9
:10619000FA0FD8B0FA0E060FC8EC16F005D008D0EA
:1061A0000BD00ED039D022D0A4EC2AF053EF2AF035
:1061B00032040F0B326E39D032280F0B326E35D0CD
:1061C0000BEE00F0000EE9263250066E0F0E066050
:1061D0000AD00628EBCF07F0065007C0EBFF062ACF
:1061E0000E0E0664F6D70F0EEB6A1FD00BEE00F012
:1061F000000EE9260E0E066E0650EBCF07F00628BD
:1062000007C0EBFF0606062803E032500660F4D70D
:106210003250EB6AEB8A09D00BEE00F0000EE92653
:10622000066AEE6A062A06A8FCD7CDDD0550CED157
:10623000066E2250065E276A1C84266A1C96FDECB8
:1062400040F00650FB0FD8B0FB0E050FC8EC16F05F
:1062500004D029D02CD03ED048D082EC32F0020EAF
:1062600032B6E9263250C6EC16F0066E076AEE50DA
:106270000614D8A40780ED500614D8A40782072876
:10628000030B076E061CEF1607A002D00650EF1294
:10629000EF5033D8061CEF1607A202D00650EF12BB
:1062A000EF502BD829D01E72326A186A25D082ECA2
:1062B00032F00DEC60F014C1E8FF1FD815C1E8FF03
:1062C0001CD80DEC60F014C1E8FF17D815C1E8FF29
:1062D00014D812D082EC32F0000E0FD8000E0DD878
:1062E000000E0BD8000E09D807D01E90D8904A3463
:1062F000406E030E29EF26F01200EF6E34EC41F0F1
:10630000EE50120018501A1804E119501B1801E140
:10631000200C1B5006E11AC0F5FFF36A18C0F4FF09
:1063200006D01BC0F5FF18C0F3FF19C0F4FFF550ED
:10633000F00B07E1F5B61DD0F5B416D0F5B20DD0CF
:1063400007D0F5BE20D0F5BC1BD0F5BA17D014D0BD
:10635000F43AF3380F0BF41019D0F336F436F33661
:10636000F436F336F43412D0F336F436F336F4342C
:106370000DD0F336F4340AD0F45008D0F43006D0FF
:10638000F430E83003D0F430E830E8301F0B12006E
:10639000551804E05518556E140E546E1200050E73
:1063A000586E120010CBE8FFE8B215D0E8B00CD060
:1063B0000BEE00F0B00E42B2A00E42B0900E3FB015
:1063C000D00F3424E92612000BEEB0F034503FB069
:1063D000B00FE9261200E8B00BD00BEE60F034509D
:1063E000E92640500A0DF350E926F450EA22120043
:1063F0000BEE60F03450E9264050300DF350E926A2
:10640000F450EA22120010CBE8FFE8B20BD0E8B05B
:1064100008D00BEE00F05A0E3FB0540E3424E9269B
:106420001200F7D7E8B001D0F4D7F3D710CBE8FFCC
:10643000E8B211D0E8B008D00BEEC0F04450050D22
:10644000F3503424E9261200BFDF4450010B070D3E
:10645000F350E9261200E8B001D01200C9DF445021
:10646000010B070DF350E926120010CBE8FFE8B24C
:106470000BD0E8B008D00BEEE0F04550100DF35013
:106480003424E9261200A0D7E8B001D01200B0D71A
:106490000CEE00F04750080DF3503424E9261200AA
:1064A0000CEE00F04750080DF350040FE9261200DF
:1064B0000CEE40F04A50030DF35034B6010F34B8DF
:1064C000020FE92612000BEE18F04B50050DF350A9
:1064D0003424E926120010CBE8FFE8B20BD0E8B074
:1064E00008D00CEE6CF04C50050DF3503424E92626
:1064F00012006AD7E8B005D00BEE00F034C0E9FF17
:10650000120076D710CBE8FFE8B215D0E8B00AD079
:106510003450030B050D1CEE6CF0F350E126F450E3
:10652000E22228D00CEE00F02D38700BE9262C501A
:106530000F0BE9261200E8B00CD00CEE00F02D5045
:10654000200DF350E9264A50070B040DF350E926BD
:10655000120034C0F5FF40C0E1FF34C040F02B0E04
:10656000346E46DFF5CF34F0E1CF40F0E9CFE1FF04
:10657000EACFE2FF020EE3507F0BF36E030EE3500F
:106580007F0BF46E2C507F0BF3260BEE00F0F350D4
:10659000800FE96E010EEA22F428F36002D0FF09B1
:1065A0001200000B120000EE80F03450E9261200B9
:1065B00000EE80F0030EE9261200F5DF4050080DD2
:1065C000F350100FE9261200040D03D0040D020E43
:1065D000F326C1EC38F0CBD0CAD0CAD0CDD0CFD0C2
:1065E000D4D0D8D0D9D0DCD0FED0FFD002D103D1C6
:1065F00005D107D11FD12ED131D133D135D137D1EA
:106600003AD13BD141D144D14AD14DD153D156D1C8
:1066100056D156D158D15AD163D168D170D177D1E2
:106620007ED182D184D186D18CD18FD191D193D199
:1066300095D197D199D19BD19DD19FD1A4D1A7D1EB
:10664000AED1B2D1B8D1BBD1BDD1BFD1C1D1C3D1EF
:10665000C5D1C7D1C9D1CBD1CDD1CFD1D1D1D3D152
:10666000D5D1D5D1D7D1D7D1DBD1DDD1E3D1E6D1C9
:10667000E8D1EAD1ECD1ECD1F2D100D20BD211D2D7
:1066800014D20FD212D2EFD1F5D114D216D218D221
:106690001AD216D218D21AD21BD21CD226D22CD27F
:1066A00035D23ED240D243D245D248D24AD24DD240
:1066B0004ED250D256D25AD260D264D266D256D27C
:1066C0005CD267D269D26BD274D279D27FD283D2B4
:1066D00086D289D28CD28FD28FD28FD28FD28FD2C4
:1066E00099D299D29ED29ED2A3D2A3D2A4D2A5D21D
:1066F000A6D2A7D2A8D2A9D2B1D2B7D2C0D2C7D27D
:10670000CDD2D2D2DED2E5D2E9D2EBD2EFD2F1D2E3
:1067100002D30FD312D315D319D31BD323D32AD328
:1067200031D335D338D33BD33ED341D348D34CD3E5
:1067300054D359D359D35ED362D366D366D366D3C9
:106740006BD36ED373D376D382D38AD38AD38AD3CF
:1067500090D395D39BD3A0D3A6D3ABD3B6D3BAD380
:10676000C4D3D2D3E1D3ECD3F3D3F9D3FED3120005
:1067700018C0EFFF02EF38F0EF50C2EF37F018C04B
:10678000EEFF19C0EDFF02EF38F0EECF18F0EDCFBD
:1067900019F01200BEEF37F0BAEC37F0C2EF37F065
:1067A00009C6F3FF335018640CD01850C6EC16F02D
:1067B000F31412E11828030B186EF2E13350186E2F
:1067C0000BD01850C6EC16F0F31406E11804030BB6
:1067D000186E030AE5E1F2D71850C6EC16F0F0097E
:1067E0003E6E1D8212003350CDD318C041F014EF1D
:1067F0002FF04150C7D318283F6E12003F04030BFF
:10680000C1D3D3EC32F03FB007D8040E3426D3EC1A
:1068100032F03FB201D812001838F00BEE6E183883
:106820000F0BEF6E1938F00BED124BEC41F0E92A2B
:106830004BEF41F0D3EC32F0000E3FA0040FE926FD
:10684000EE380F0B186EEF38F00B1812EF380F0BF5
:10685000196E1200325018C0EBFF12003250EB508C
:1068600091D31EB2A0D396D71EB2120095D7F0DBFB
:1068700018C0EFFFC7D396DD7FD7EADB0F0EEF1608
:106880001838F00BEF12BED38DDDEF380F0B7AD333
:10689000DFDBF00EEF1618500F0BEF12B3D382DDD3
:1068A000EF500F0B6FD3D4DBFC0EEF161850030B19
:1068B000EF12A8D377DDEF50030B64D3D8D7DBD723
:1068C000C7DB020EA1D36EDD020E66D3C1DB18C09A
:1068D000EFFF98DBEE5019C0EFFF94DBED50120094
:1068E00061DDEECF18F0EDCF19F01200B1DBE00E54
:1068F000EF161850EF121850D8B4EF8883D352DD3A
:10690000EF50070BEFB6080EEFB8000E3BD3A0DB3D
:106910001F0EEF161838E834600BEF1273D342DD08
:10692000EF38E830030B2ED393DB000E6DD33ADD46
:10693000000E32D38DDBF10EEF1618340E0BEF1272
:1069400061D330DDEF30070B1DD382DB040E5CD347
:1069500029DD040E21D37CDB050E56D323DD050E85
:106960001BD376DB060E50D31DDD060E15D370DB70
:10697000070E4AD317DD070E0FD36ADBE00EEF16C2
:106980001850EF123FD30EDDEF501F0BFBD260DB30
:106990001F0EEF161838E834E00BEF1233D302DD88
:1069A000EF38E830070BEED253DBC00EEF1618506D
:1069B0003F0BEF1227D3F6DCEF503F0BE3D248DB5F
:1069C000070E22D3EFDC070EE7D242DB040E1CD306
:1069D000E9DC040EE1D23CDB030E16D3E3DC030E4C
:1069E000DBD236DB000E10D3DDDC000ED5D230DB7F
:1069F000010E0AD3D7DC010ECFD22ADB020E04D35C
:106A0000D1DC020EC9D233DFC1EF42F034D72FDF21
:106A1000AEEF41F030D71CDB050EEF12010EF4D2C1
:106A2000C1DC010EB9D214DBC00EEF1618503F0BBB
:106A3000EF12E8D2B7DCEF503F0BA4D209DB070E10
:106A4000E3D2B0DC070EA8D218DFC1EF42F01CD7AA
:106A5000E5DAF80EEF161850070BEF12D3D2D3DC9D
:106A6000EF50070B8FD2DADA8F0EEF161838700B53
:106A7000EF12C8D2C8DCEF38070B84D2CFDA18C0C7
:106A8000EFFFC0DAEE50F00EEF161950EF12BADA3F
:106A9000ED501200B8DCEECF18F0ED500F0B196E70
:106AA0001200BCDA1850EF6EADD2ADDCEFCF18F0AB
:106AB000196A1200B3DA030EA7D2A5DC030E6CD25A
:106AC000ADDA070EA1D29FDC070E66D20CDB50D6E2
:106AD000ADDC52D608DB0E0EEF161804E838F00BCA
:106AE000EF121850D8A4EF808DD2A0DCEF380F0B36
:106AF000010FEFA0000E46D2F6DA445034264AC009
:106B00000AF04A6A6BDB0AC04AF01200445034268D
:106B10004AC00AF04A6AFDEC38F00AC04AF0120096
:106B2000E2DA010E71D216EC32F0010E35D2DBDA68
:106B3000030E6AD216EC32F0030E2ED2D4DA020E15
:106B400063D216EC32F0020E27D2F9DA11D635EC08
:106B500032F012D6F4DAF80EEF161850070BEF12D7
:106B600051D235EC32F0EF50070B0CD2E8DA8F0E31
:106B7000EF161838700BEF1245D235EC32F0EF38C3
:106B8000070B00D2DCDA070E3FD235EC32F0070EED
:106B900003D248EC32F0ECD548EC32F0EDD548ECBD
:106BA00032F01850E10FE8BE03D0800FEF6E2AD20A
:106BB000DFD548EC32F0EF50EFBE9E0FE3D148EC4A
:106BC00032F0F00EEF161850EF121CD248EC32F0F3
:106BD000EF500F0BD7D148EC32F0060E15D248EC2F
:106BE00032F0060ED9D148EC32F0070E0DD248EC47
:106BF00032F0070ED1D1CCD2E0D2F0D2FED210D9F1
:106C0000405007E110EE70F03350030BE12618C03E
:106C1000E7FF12000BD1FAD8E2EC41F018C0E7FF11
:106C2000B4D9FAD0F3D8DBEC41F018C0E7FFADD906
:106C3000F3D0000EE9D1000EAFD1010EE5D1010E67
:106C4000ABD1020EE1D1020EA7D1D3EC32F0185035
:106C5000320FD8B0FF0EEF6E4BEF41F0D3EC32F0B5
:106C6000EF50CE0FD8A0000E8DD1D3EC32F0FC0E39
:106C7000EF1618B0EF8018B2EF824BEF41F0D3EC73
:106C800032F0000EEFB00109EFB202097BD1D3EC74
:106C900032F0EF9618B0EF864BEF41F0D3EC32F0C4
:106CA000000EEFB6010E6ED13450AEEC96F0E1500E
:106CB000020FE96EE250040FEA6E18C0EFFF62EFB8
:106CC00041F03450AEEC96F0040EE226020EE35092
:106CD00059D163EC32F04CDDA7EF41F063EC32F0B8
:106CE0004BD563EC32F044DDAEEF41F063EC32F0B3
:106CF00043D51938F00BF46E18380F0BF41218380E
:106D0000F00BF36EF3CFEFFF7DD9EE50F4CFEFFF32
:106D100079D9ED501200EECFF3FFEDCFF4FFF43848
:106D20000F0B196EF438F00B186EF3380F0B1812A6
:106D30001200140EE96E345067D1140EE96E34500F
:106D40002BD16BEC32F014DDAEEF41F06BEC32F096
:106D500013D56BEC32F0EF9CEF9E18B0EF8C18B2AD
:106D6000EF8E50D16BEC32F0000EEFBC010EEFBE97
:106D7000020908D16BEC32F0C00EEF1618503F0B31
:106D8000EF1240D16BEC32F0EF503F0BFBD06BECCD
:106D900032F0060E39D16BEC32F0060EFDD06BEC02
:106DA00032F0070E31D16BEC32F0070EF5D06BEC00
:106DB00032F0800EEF1618507F0BEF1223D16BECE0
:106DC00032F0EF507F0BDED06BEC32F018047F0B0B
:106DD0001852D8B4800EEF6E15D16BEC32F0EF285C
:106DE000EFBE000ECFD016D282EC32F0D8A4BCEFAA
:106DF00033F0C8D0BFD8EF9018B0EF801200BAD8E7
:106E0000000EEFB0010EBED01AD251D2D3EC32F048
:106E10001850EF6E4BEF41F0D3EC32F0EF50B2D0A0
:106E2000DDEC32F01850EF6E4BEF41F0DDEC32F05C
:106E3000EF50A8D0D8EC32F03450C6EC16F018B0B1
:106E400003D0FF0AEF1601D0EF124BEF41F0D8EC60
:106E500032F03450C6EC16F0EF14D8A4010E92D0E4
:106E600012001200D3EC32F0EF9C18B0EF8C4BEF15
:106E700041F0D3EC32F0000EEFBC010E83D0D3EC26
:106E800032F0EF9818B0EF884BEF41F0D3EC32F0CE
:106E9000000EEFB8010E76D0D3EC32F0EF9E18B0B2
:106EA000EF8E4BEF41F0D3EC32F0000EEFBE010E4F
:106EB00069D0335008E1D3EC32F0F80EEF161850D9
:106EC000EF1255EC41F0C1EF42F0D3EC32F0EF504D
:106ED000070B58D012D83450C4EC16F0EF16FF0A46
:106EE0001852D8A4EF124BEF41F007D83450C6EC3B
:106EF00016F0EF14D8A4010E45D0D3EC32F0E950CF
:106F0000F00B070FE96E120089D81850200DF3CF4F
:106F1000EFFF78D8EE501850200DF00EEF16F45019
:106F2000EF1270D8ED50120003EC32F0EE38E8307A
:106F3000070B186EED38E830780B1812196A12003A
:106F400035EC32F01850800FE8AE800EEF6E5AD05C
:106F500035EC32F0EF50800FE8BE000E13D035EC68
:106F600032F0D8901834EF6E4DD035EC32F0D89026
:106F7000EF3008D0EA6AE99EEF501200FBDF18C03C
:106F8000EFFF1200186E196A1200DBEC41F0E79E69
:106F9000E7CF18F095EF2EF0C6EC16F0EF14000EC8
:106FA000D8A4010EEFD782EC32F0EECF06F0EECF90
:106FB00008F0EECF07F0EFCF09F0FD0EE92636AE70
:106FC0000BD0D89007320632D8B0078ED89009324D
:106FD0000832D8B0098E0AD0D89006360736D8B015
:106FE0000680D89008360936D8B0088006C0EFFF72
:106FF00009D808C0ECFF06D807C0ECFF03D809C0C9
:10700000ECFF00D034EF41F018B004D0C4EC16F01F
:10701000EF16F8D7C6EC16F0EF12F4D7FDCFF6FF57
:10702000FECFF7FFFFCFF8FF10CBE8FFE8B20DD09F
:10703000E8B00AD0540EE9263FB04BD8060EE92638
:107040003FB247D806001200F5D7E8B000D0F2D71B
:10705000FDCFF6FFFECFF7FFFFCFF8FF10CBE8FF25
:10706000E8B230D0E8B020D03FA00DD0600E34247C
:10707000E96E42B02ED8100EE92642B22AD8100E80
:10708000E92642B426D83FA20DD0900E3424E96EF2
:1070900042B01FD8100EE92642B21BD8100EE926C6
:1070A00042B417D8060012003FA004D0600E34246A
:1070B000E96E0FD83FA204D0B00E3424E96E09D88F
:1070C00006001200E8B000D0D2EC31F002D8060081
:1070D0001200F29E0500F650FD6EF750FE6EF8505D
:1070E000FF6EF28E1200FDCFF6FFFECFF7FFFFCF4F
:1070F000F8FF10CBE8FFE8B21FD0E8B005D016ECDF
:1071000032F0E7DF060012003FA009D0600E342401
:10711000E96E4450010B070DF350E926DADF3FA278
:1071200009D0B00E3424E96E4450010B070DF35022
:10713000E926CFDF06001200E8B000D0E0D7FDCF8F
:10714000F6FFFECFF7FFFFCFF8FF10CBE8FFE8B266
:1071500015D0E8B005D035EC32F0BBDF06001200E8
:107160003FA004D0600E3424E96EB3DF3FA204D008
:10717000B00E3424E96EADDF06001200E8B000D096
:10718000EAD7F350FD26F450FE22000EFF22120033
:1071900050EC32F03450C6EC16F0066E3450C4ECAD
:1071A00016F0076EEF16065018B0EF122BDF0750DF
:1071B000EC16065018B2EF1225D750EC32F03450CE
:1071C000C6EC16F0066E186A196AEE500614D8A4BA
:1071D0001880ED500614D8A41882120058EC32F032
:1071E0003450C6EC16F0066E3450C4EC16F0076E40
:1071F000EF16065018B0EF1205D758EC32F03450A5
:10720000C6EC16F0066E186A196AEF500614D8A478
:107210001880120082EC32F02C50800A03E018C073
:10722000EFFFF0D62C6A82EC32F006E018C0EFFFD8
:10723000E9DE2C2A2CAEF7D7800E2C6E12002C50D3
:10724000F00B06E02C6A04D82C2A2CA8FCD71200DC
:1072500082EC32F0345007E0FF0F0BE0FF0F11E03B
:10726000FF0F17E01CD0F00EEF1618500F0BEF12A7
:10727000C9D6CF0EEF161838300BE8BAE878EF12FF
:10728000C1D63F0EEF161838E834E834C00BEF12C1
:10729000B9D6800EE926EF9E18B0EF8EB3D6800ED9
:1072A000E926800EEF1618507F0BEF12ABD682EC5A
:1072B00032F0345007E0FF0F08E0FF0F0BE0FF0F44
:1072C0000EE013D0EF500F0B5DD6EF38030BE8B292
:1072D000E87058D6EF38E830E830030B53D6800E0C
:1072E000E926000EEFBE010E4DD6800EE926EF50C6
:1072F0007F0B48D6830FD8B0830E7D0FC8EC16F0F5
:107300007CD07ED080D082D084D086D087D08FD0E1
:10731000A4D0A8D0ACD0AED0B0D0CFD0B1D0D1D046
:10732000D3D0E1D0D3D0F3D0F4D0F7D0F9D0FBD084
:1073300006D11AD11CD11DD11ED11FD120D12BD1E4
:1073400035D13BD13DD146D148D14AD14CD14ED196
:1073500051D155D158D15AD163D165D167D169D1B5
:107360006BD16DD16DD176D180D182D185D188D1CB
:1073700092D197D196D19BD1A7D1B7D1B9D1BBD159
:10738000C3D1C5D1C7D1C9D1CAD1CBD1D5D1D8D11B
:10739000DAD1E3D1EED1F6D119D2FCD1FED100D2AF
:1073A00017D228D22BD22ED241D244D24BD252D293
:1073B00055D258D266D269D26CD26FD27CD280D2EA
:1073C00083D289D292D2A1D2A2D2ADD2B4D2BAD231
:1073D000C8D2CBD2CED211D313D31AD33FD33FD3FB
:1073E00047D352D353D35FD363D364D367D367D325
:1073F0006AD36DD370D38CD393D3040E10EF55F0B2
:10740000EF50D1EF3DF0EF28D1EF3DF0EF50E0EF3E
:107410003DF0EF50EDEF3DF0C7EF3DF010EE70F0B6
:107420003350030BE126E7287F0BD1EF3DF0200E10
:10743000AFEC3DF0DBEC41F0136EE2EC41F0146E8A
:10744000410FAFEC3DF034EC65F0200ED8A42A0ECD
:10745000AFEC3DF0200EAFEF3DF0DBEC41F0010F63
:10746000D5EF3DF098EC3DF0010FD5EF3DF0000E6B
:107470000AEF3EF0010E0AEF3EF0020E0AEF3EF078
:1074800098EC3DF0066E09C607F02D0E06B0310EE1
:1074900007A02A0E64DB2D0E06B2320E07A22A0EBA
:1074A0005EDB2D0E06B4330E07A42A0E58DB2D0E1C
:1074B00006B6340E07A62A0E52D398EC3DF02FEFF5
:1074C0003EF036DBD1EF3DF033DB6AD331DB200E0B
:1074D00046DB2D0EEFB04C0E42DB2D0EEFB2520EFE
:1074E0003EDB200E3CD3D3EC32F0000E3FA0040F65
:1074F000E926EF50EC3896EC16F0ED38F00BF36E11
:10750000EF380F0BF31098EC16F0200E28D317DB92
:1075100048D315DBE8380F0B44D311DB0F0B41D3F5
:107520000EDB7F0B3DD30BDB070BF36E040B04E08C
:10753000F350030B7C0F51D3F350800F4ED3FFDA7F
:10754000580EF66E750EF76E000EF86E000EEFB068
:10755000010EEFB2020E70D34E6F722043544720DB
:10756000476C73203F3F3F20EADA020E53D3E7DA3D
:10757000F8D2E5DA0CD3E3DA23D3E1DA2ED3DFDA7B
:10758000A00EF66E7E0EF76E000EF86EEF500F0B2B
:10759000EFB8000E51D3D3DAE00EF66E7E0EF76E22
:1075A000000EF86EEF30E838030B46D3C8DAD8B4D3
:1075B0004ED355ECAAF0200ED2D2C1DA000E2AD357
:1075C000BEDA140EF66E7F0EF76E000EF86EEF3018
:1075D000070B32D3B4DA040E1DD3B1DA050E1AD379
:1075E000AEDA060E17D3ABDA070E14D3A8DAEF50D3
:1075F0001F0BD6D2A4DAEF38E830070BD1D29FDACE
:10760000EF503F0BCDD29BDA070E04D398DAF00E81
:10761000F66E7E0EF76E000EF86EEF500F0B0CD369
:107620008EDA040EF7D28BDA030EF4D288DA000E6B
:10763000F1D285DA010EEED282DA020EEBD267D7F2
:107640007EDAF00EF66E7E0EF76E000EF86EEF38F4
:107650000F0BF2D2800EF66E7E0EF76E000EF86EF5
:1076600003EC32F0EF50070BE7D203EC32F08FD28D
:1076700003EC32F0EF5095D203EC32F0EF5091D2A0
:10768000600EF66E7E0EF76E000EF86E03EC32F0B2
:10769000EF38070BD1D203EC32F0EFCF03F0030E3B
:1076A000BBD203EC32F0EFCF03F0070EB5D2400EA1
:1076B000F66E7F0EF76E000EF86E45DAE8380F0BA7
:1076C000010FEFA0000EB8D23EDA680EF66E7F0E04
:1076D000F76E000EF86EFE0EEBA405D0EF30E8302A
:1076E000E8301F0BA9D2EF505CD2A3EC3DF059D289
:1076F000A3EC3DF072D2445034264AC00AF04A6AE4
:1077000079D80AC04AF012001EDA010E83D21BDAC1
:10771000030E80D218DA020E7DD219DA42D217DABD
:107720005CD215DA070BF36EE80EF66E7F0EF76E7D
:10773000000EF86EF35080D20ADAEF38070BF3D759
:1077400006DA070E67D2080EF66E800EF76E000E90
:10775000F86EFDD9EF38070B6FD2280EF66E800E4B
:10776000F76E000EF86EF7D9E8AE02D07F0B19D293
:1077700063D2A40EF66E800EF76E000EF86EEBD993
:107780000F0B5AD2E40EF66E800EF76E000EF86EF6
:10779000E2D952D2E0D9060E3DD2DDD9070E3AD257
:1077A00050EC32F03450C6EC16F0066EEE50061473
:1077B0004C0ED8B42D0ED3D92F0ED1D9ED500614BE
:1077C000520ED8B42D0ECBD9200EC9D1C4D905D2B2
:1077D000880EF66E810EF76E000EF86EEA6AEF34D0
:1077E000E834FC0BF626000EF722000EF822030EFA
:1077F0009CEF16F058EC32F034500CD2D3EC32F04F
:10780000EF50CFD1200EF66E780EF76E000EF86EA8
:10781000D3EC32F0000EEFB0010EEFB2020E0CD23C
:107820004D73742E536C762E4175746FD3EC32F019
:10783000030EF0D1C00EF66E810EF76E000EF86EDC
:1078400077D9FAD13450AEEC96F0040EE226020E4F
:10785000E350A7D163EC32F0EF50A3D163EC32F0E8
:10786000EF509FD1EECFF3FFEDCFF4FFF43896EC5D
:1078700016F0F45096EC16F0F33896EC16F0200E55
:107880006ED1140EE96E3450C5D16BEC32F0EF506E
:1078900088D16BEC32F0EF5083D16BEC32F02D0ECF
:1078A000EFBC4C0E5CD92F0E5AD92D0EEFBE520EE6
:1078B00056D9200E54D16BEC32F0EF503F0B70D103
:1078C0006BEC32F0070EA6D16BEC32F0EF507F0B71
:1078D0000BDA200E44D16BEC32F0EFBE05D0EF5046
:1078E0007F0B02DA200E3BD1B2D122D97F0E2C645D
:1078F00008D0410E34D96C0E32D96C0E30D9200E1E
:107900002ED1EF50F1D9200E2AD198EF3EF0480E3B
:107910001DB0440E24D9650E22D9780E1DB0630E19
:107920001ED9200E1CD1470E1AD96F0E18D9210E60
:1079300016D9200E14D1FCD80F0E2C6401D0D9D743
:10794000EF502ED16BEC32F0EF50F80B02E1EF501C
:1079500027D1200E04D9200E02D92D0E00D9200ED9
:10796000FED06BEC32F0070E55D16BEC32F0060E08
:1079700051D182EC32F0345007E0FF0F18E0FF0FD6
:1079800027E0FF0F31E034D0200EE9D8EF500F0B85
:10799000020DE00EF324F66E810EF420F76EF86A05
:1079A000000EF822020E9CEC16F0200ED8D0C00E6D
:1079B000F66E790EF76E000EF86EEF38030B3CD1C1
:1079C000202D20202055702044776E2055703220C5
:1079D0002D0EEFBC2A0EC3D8200EC1D82D0EEFBE3F
:1079E0002A0EBDD8200EBBD0800EE926070E12D17C
:1079F000800EE926EF507F0BD4D0A1D8EF503ED1B6
:107A0000470EADD8650EABD86E0EA9D8200EA7D004
:107A10001CA802D01CA61CD030C014F02FC013F03C
:107A200034EC65F00DE014500BE03050410F97D866
:107A30002D0E95D82D0E93D82D0E91D8200E8FD0C7
:107A400030C0F3FF2FC0F4FF25EC55F0200E87D097
:107A50003050410F84D8040E10EF55F01200450E3F
:107A600088EC16F02FC013F030C014F0AFEF55F0D3
:107A70002E5006E091EC65F003E0450E70D8E7D09B
:107A80002EC0F3FF16EF55F056D88AD054D8F00B1D
:107A900002E1EF5085D0200E62D82D0E60D82D0E59
:107AA0005ED8200E5CD047D855ECAAF0200E57D0F7
:107AB00042D886D0D8EC32F03450ACD01200D3EC9F
:107AC00032F0060EA7D0D3EC32F0040EA3D0D3ECE4
:107AD00032F0070E9FD0D3EC32F0EF50070B10E0DE
:107AE0003350200ED8A4280E3AD8EF50070B8EEC56
:107AF00016F03350200ED8A4290E31D8200E2FD0E6
:107B00006F0E2DD8660E2BD8660E29D8200E27D0E2
:107B1000D3EC32F0E950F00B070FE96E34507AD015
:107B2000340EF66E7F0EF76E000EF86EEF5084D0B6
:107B3000EA6AEF501200DDEC32F0EF501200D2ECA6
:107B400031F0EF50120016EC32F0EF50120035EC2D
:107B500032F0EF50120048EC32F0EF50120094EF88
:107B600016F0066E200EFBDF065098EC16F0200E85
:107B7000F6D7066E2B0E06AC2D0EF1DF06507F0BEE
:107B80004008E8BEE86C98EC16F0200EE8D7EC5000
:107B900096EC16F0ED50EF5098EC16F0200EDFD773
:107BA000010F92EC16F0200EDAD7036AF4EC16F00F
:107BB000045096EC16F0035098EC16F0200ECFD738
:107BC000066E200E06AC2D0ECADF06504008E8BE39
:107BD000E86C90EC16F0200EC2D7E8AE05D07F0B13
:107BE00092EC16F0200EBBD78008066E9C0F07E2C1
:107BF0002D0EB5DF065090EC16F0200EB0D7060E15
:107C0000AEDF06509C0F036AF4EC16F098EC16F009
:107C1000200EA5D7EFCF03F0C6EC16F0031404E155
:107C2000200E9DDF6F0E03D0200E99DF2A0E97DF06
:107C3000200E95DF200E93D7E836E834FC0BF626AD
:107C4000000EF722000EF822040E9CEF16F02D0E07
:107C500086DF2D0E84DF2D0E82DF200E80D7066E8C
:107C60002D0E06B0310E7BDF2D0E06B2320E77DF01
:107C70002D0E06B4330E73DF200E71D7020D540E95
:107C8000F324F66E570EF420F76EF86A010EF82210
:107C90000900F5CFF3FF0900F5CFF7FFF3CFF6FFAB
:107CA000040E9CEF16F082EC32F0EECF06F0EECF31
:107CB00008F0EECF07F0EECF09F0100EF36E06B02D
:107CC00006D008B002D0A50E07D0410E05D008B0EE
:107CD00002D02A0E01D0530E42DF0732063209329B
:107CE0000832F32EECD712001DA002D092EF16F04E
:107CF000066E200E34DF065098EF16F01DB00CD043
:107D0000066E2B0E06AC2D0E2ADF06507F0B4008A8
:107D1000E8BEE86C98EF16F0066E2B0E06AC2D0E42
:107D20001EDF06504008E8BEE86C90EC16F012002A
:107D300082EC32F017E110CBE8FF030B030A0BE1F2
:107D40001BEE8DF03450070B300DF350E126F4504C
:107D5000E222E7BE07D02E0E02DF2E0E00DF2E0E2F
:107D6000FEDE58D0EFAE54D010CBE8FFE8B20ED014
:107D7000E8B00BD01CEE6DF03450030B050DF35042
:107D8000E126E750FC0BFC0A1DD0F4D7E8B001D087
:107D9000F1D71BEE8DF03450070B300DF350E12678
:107DA000F450E222E7AE09D0010EE126E7507F0B46
:107DB000010F2C6029D0FF0EE126FF0EE126E750CF
:107DC000F80BF80A21E1EF50FC0BFC0A0AE14B0E1C
:107DD000C6DE790EC4DEEF50030B010F8EEC16F0F9
:107DE00019D0EF507F0B06E0FF0F06E0010F55ECB6
:107DF000AAF010D02D0E01D02B0EF56EB0DEF5508E
:107E0000AEDEF550ACDE06D0EF507F0B6DDF02D05A
:107E1000EF5074DF10CBE8FFE8B209D0E8B006D02D
:107E20001CEE70F03450030B050D09D0F9D7E8B003
:107E300001D0F6D71BEE64F03450070B300DF35031
:107E4000E126F450E222E7BE1200E7507F0BF36E0A
:107E5000E950800FF3183C0ED8A4200E80DE1200EB
:107E60002D2D2D204C2D2D202D422D204C422D200E
:107E70002D2D48204C2D48202D4248204C42482092
:107E80002D2D2D20312D2D202D322D2031322D2044
:107E90002D2D3320312D33202D323320313233201C
:107EA0006F6666205472692053617720542B5320EB
:107EB00050756C20502B5420502B5320505354207D
:107EC0004E6F69204E7331204E7332204E73332033
:107ED0004E7334204E7335204E7336204E73372048
:107EE0002D2D2D2053796E2052696E20522653205D
:107EF000204C5220204C2D20202D5220204F31206C
:107F0000204F3220204F3320204F3420204F352067
:107F1000204F36205570202044776E20552644206F
:107F2000442655205544322044553220526E642058
:107F3000722E37204E6F722053752D2053752B20D3
:107F40006F66662053696E205472692053617720F2
:107F500050756C2052616E2050536E205054722028
:107F60005053772050506C202D2D2D20313662201B
:107F70003134622031326220313062202039622077
:107F8000203862202037622020366220203562208F
:107F900020346220332E356220336220322E356247
:107FA00020326220312E356220316220312F32445E
:107FB000312F3154312F3220312F3444312F32546C
:107FC000312F3420312F3844312F3454312F382081
:107FD0002F313644312F38542F3136202F3332444D
:107FE0002F3136542F3332202D2D2D204174312046
:107FF000417432204465312044653220537573202A
:1080000052653120526532202D2D2D20412D2D20FD
:108010002D442D2041442D202D2D5220412D522024
:108020002D445220414452202D2D2D2045473120F2
:10803000454732204C4631204C4632204C463320B6
:108040004C4634204C4635204C4636204D5031208D
:108050004D5032204D5033204D5034204D5035205E
:108060004D5036204D5037204D5038204D6457200C
:108070004B6579204B2331204B2332204B23332077
:108080004B2334204B2335204B2356204B235020A9
:108090004B2341205754312057543220575433201A
:1080A000575434202D2D2D205372312053723220FD
:1080B000312B3220312D3220312A3220584F52209C
:1080C0004F522020414E44204D494E204D415820D2
:1080D000313C3220313E3220313D3220532648207F
:1080E000722E32202D2D2D205074312050743220CC
:1080F000507433205074342050743520507436201E
:108100005057312050573220505733205057342089
:108110005057352050573620466C3120466C32205F
:10812000566C3120566C32204C4431204C44322065
:108130004C4433204C4434204C4435204C443620AD
:108140004C5231204C5232204C5233204C5234206D
:108150004C5235204C52362045783120457832201B
:1081600045783320457834204578352045783620C9
:1081700045783720457838205754312057543220DD
:1081800057543320575434204E4F6E204E4F6620A4
:1081900045315320453253204C3150204C32502031
:1081A0004C3350204C3450204C3550204C3650200D
:1081B000436C6B20436C3620433234204D53742083
:1081C0004B2331204B2332204B2333204B233420AD
:1081D0004B2335204B2356204B2350204B2341204B
:1081E0004320432344204423452046204623472060
:1081F0004723412041234220432B030E3EB4020E6D
:108200003EB2010E3EB0000E336EFF0B12003D5029
:1082100008E01200FDEC40F03D18D8B4120033C065
:108220003DF03DC033F0335010E10BEE00F017EE9F
:1082300000F0F36AF46AE6CFEEFFF32AD8B4F42A2A
:10824000F4A2F9D7EFEC57F004D0CEEC45F00DECEA
:1082500046F01C841FBE1C8212003D50336E02E1AA
:10826000EFEF57F00DEF46F033500CE1E9CFE1FFAF
:10827000EA50FC0FE26EEFCFE7FF020EE226EFCFEF
:10828000E7FF1200E9CF03F0EA50F50F046EEF505C
:1082900037EC45F01200335002E179EF57F0800ED1
:1082A000E924036EEF5050EF45F03350D8A412008C
:1082B00079EC57F0332AF3DF332AF1DF332AEFDF8B
:1082C000336A1200335006E1EFCF03F0345027EC4D
:1082D00096F005D034C003F0EF5080EC45F02BA2AF
:1082E000120010EE70F03350E1263450070BC8EC4A
:1082F00016F007D014D015D016D017D018D018D03B
:1083000025D0010EF36EE7500F0BB00924EC16F0E8
:10831000F35024EC16F0EF307F0B24EF16F0100E24
:10832000F1D7110EEFD7120EEDD7130EEBD71200C7
:10833000E7500F0BE00924EC16F0000EEFB0400EF2
:1083400024EC16F0EF307F0B24EF16F012003350C0
:1083500003E14B50A0EF96F098EF45F0335002E167
:1083600040EF5AF03FEF46F095D81C841FBE1C82A8
:10837000120033B20CD033B005D068C013F06CC01B
:1083800014F011D069C013F06DC014F00CD033B0EC
:1083900005D06AC013F06EC014F005D06BC013F0A6
:1083A0006FC014F000D0139E120068C013F06CC0B0
:1083B00014F0139E120010EE68F03350E126E750DF
:1083C0007F0B120010EE6CF03350E126E750070BE4
:1083D00012000101F36A00EE70F0F350E926EF504D
:1083E0000B190F0B0EE1F80EE9260C51EF187F0B5D
:1083F00008E00CC1EFFF0C0EE926EFBE02D0810EA3
:10840000EF6EF32AF3A4E7D712000101F36A00EE3E
:1084100070F0F350E926EF500B190F0B12E1FC0E30
:10842000E9260D51EF18070B0CE00D51070BEF6E0D
:10843000FC0EE926EF9E0C0EE926EFBE02D0810E5F
:10844000EF6EF32AF3A4E3D7120010CBE8FFC7ECDA
:1084500042F0335012E10BEE00F017EE00F029EE7F
:1084600000F0020EF36EEFCFE6FFEECFDEFFE95035
:10847000FAE1F32EF8D7EAEF58F00DEF47F0336A40
:108480003350C6EC16F03E1401E0DFDF332A33A48C
:10849000F7D7B3D610EE74F03350E126E750D8A4E6
:1084A00022D0335011E1010EE76E000168BF1AD0EF
:1084B00068C013F06CC014F0688F6CEC5AF010C7F1
:1084C000E8FFC7EC42F00ED0060EE76E10EE68F043
:1084D0003350E3BE07D0E38E41EC46F0B9EC41F0F7
:1084E00071EC46F0120010EE74F03350E126800E6D
:1084F000E76E1200336A0FD80AE1E79E35DFC6C087
:10850000E8FF070B04E0800E756F766F776F332AF4
:1085100033A4F1D7120010EE74F03350E126E7AE29
:1085200004D0E7507F0B01E11200FF0912001DB8D3
:1085300004D0F00E1D1294EF59F00F0E1D16FBEF34
:1085400059F0336E3350C6EC16F0E838F00B076E76
:10855000F29E1D5007181D6EF28E3350C6EC16F0B9
:10856000E8381D1401E001D006D0335002E194EF49
:1085700059F043EF46F0335002E1FBEF59F058EF6A
:1085800046F0335002E1C5EF5EF05AEF46F0030BC0
:10859000F36E030EF46E33B2F33A33B2F43A33A00F
:1085A00005D0D890F336F336F436F436F41C591669
:1085B000F35059121200595033B2E83833A004D0A6
:1085C000D890E830D890E830030B120000145349DB
:1085D000443120452E20506C7920496E6920446D2D
:1085E00070200C0E00A684EC16F0CC0EF66E850EF4
:1085F000F76E000EF86E9EEC16F0030E88EC16F087
:10860000FDEC40F0010F8EEF16F050742E20456EF9
:108610007320400E88EC16F045D84C0E3FA02D0E6E
:1086200042D8520E3FA22D0E3ED83CD8200E94ECDC
:1086300016F010CBE8FF030B3CEC55F0200E94EC49
:1086400016F030D8FDEC40F0C6EC16F0E8381D14FA
:108650006F0ED8A42A0E27D825D824D801D9066EA3
:10866000E8BC010E040D0A0EF324F66E860EF4200B
:10867000F76EF86A000EF822040E9CEC16F006BCA9
:108680000BD0FDEC40F0E2EC41F0146EDBEC41F07D
:10869000136E25EC55F002D014EC55F0140E10ECCE
:1086A00055F01200200E94EF16F0066EFBDF6F0EF1
:1086B000FADF660E06B06E0EF6DF660E06B0200E0E
:1086C000F2DFF0D79EEC16F0400EFAEF16F0070B33
:1086D000C8EC16F007D00DD071D03BD0A0D012005E
:1086E000120012003F28030BD8B4010F3F6E1C8408
:1086F00012000BEE10F0EF50010F030BF36EEF5072
:10870000FC0BF310EF6E7DEC5AF03FEC42F0406A48
:10871000416A14EC2FF0446A456A476A4A6A4B6A18
:108720004C6AB5EF2AF04014205061746368204908
:108730006E697469616C6973656420204014456ECC
:1087400073656D626C6520496E697469616C6973EB
:10875000656486D8E8BC0FD07DEC5AF03FEC42F05F
:10876000260EF66E870EF76E000EF86EABDF140E57
:1087700010EC55F012004FEC58F03C0EF66E870EE0
:10878000F76E000EF86E9EDF140E10EC55F012001E
:1087900040142D2D20416C6C204E6F746573204F5A
:1087A0006666202D2D2040142D2D20506C61796996
:1087B0006E67205061746368202D2D20A7EC23F094
:1087C000FDEC40F0C6EC16F0E8381D1407E0A60EEC
:1087D000F66E870EF76E000EF86E06D0900EF66EEF
:1087E000870EF76E000EF86E6DDF140E10EC55F06C
:1087F000120040142D2D2050617463682044756D63
:10880000702073656E74202D40142D2D20456E73DD
:108810002E2044756D702073656E74202D2020D835
:108820000809E8CF07F1146A136A33C012F0E8BCF4
:1088300010D0F20EF66E870EF76E000EF86E42DF65
:10884000140E10EC55F044EC94F004EC16F0126E9B
:108850001200080EF66E880EF76E000EF86EEFD757
:10886000000E1FBC700E120084DD62EF65F081DD2A
:1088700074EF65F03104D8A41200316A91EC65F010
:1088800002E0116A04D0115002E1010E116E30EFC6
:1088900057F0001453494478206E6F7420636F6D55
:1088A00070617469626C6520001453494478206ECD
:1088B0006F7420617661696C61626C652020401480
:1088C000284E6F204D424E657420526573706F6E56
:1088D0007365292040142843414E2042757320457A
:1088E00072726F7273292020202040142843414E59
:1088F0002064697361626C65642129202020202036
:10890000FDEC40F0C6EC16F0060109153BE11C90A9
:1089100000BB14D03350C6EC16F006010A150EE069
:10892000920EF66E880EF76E000EF86E9EEC16F044
:10893000400E88EC16F0335041D81DD0A80EF66ECC
:10894000880EF76E000EF86E9EEC16F0060100BB66
:1089500001D007D0EA0EF66E880EF76E000EF86EA4
:1089600008D000A906D0D40EF66E880EF76E000E61
:10897000F86E9EEC16F0030E88EC16F033288EECA1
:1089800016F012001200FDEC40F0C6EC16F00601E5
:10899000091503E13350A2EC20F01200336E030BF3
:1089A00010EE68F0E39E73EC42F03350ACEC57F0FD
:1089B00057EC47F02DEC41F01C82120006EE20F03F
:1089C000E834E834E834380BE926500E94EC16F01D
:1089D000EE50036AF4EC16F0045096EC16F00350D7
:1089E00098EC16F0200E94EC16F0040EF36EEE5098
:1089F000D8B43F0E94EC16F0F32EF9D7200E94EC79
:108A000016F0560E94EC16F0EE50036AF4EC16F0E5
:108A1000045096EC16F0035098EC16F02E0E94ECE1
:108A200016F0EE50EECF03F0F4EC16F0055096EC95
:108A300016F0045098EC16F0035098EC16F0120063
:108A400033C005F60601060E076F086B000EE6EC54
:108A50001FF00CE1030EE66E03C0E6FF04C0E6FF64
:108A600005C0E6FF19EC20F0D8A444D21200056E30
:108A700033C005F60601120E076F086B000EE6EC18
:108A80001FF00DE1040EE66E03C0E6FF04C0E6FF32
:108A900005C0E6FFE66A19EC20F0D8A42BD212003C
:108AA000056E33C005F60601110E076F086B000E48
:108AB000E6EC1FF00CE1040EE66E03C0E6FFE66A8A
:108AC00005C0E6FFE66A19EC20F0D8A413D2120024
:108AD000056E33C005F606011C0E076F086B000E0D
:108AE000E6EC1FF00CE1040EE66E03C0E6FFE66A5A
:108AF00005C0E6FFE66A19EC20F0D8A4FBD112000D
:108B0000056E33C005F60601130E076F086B000EE5
:108B1000E6EC1FF00CE1040EE66E03C0E6FFE66A29
:108B200005C0E6FFE66A19EC20F0D8A4E3D11200F4
:108B300033C005F60601140E076F086B000EE6EC55
:108B40001FF008E1010EE66E03C0E6FF19EC20F00D
:108B5000D8A4D0D112000601076F086B33C005F608
:108B6000000EE6EC1FF006E1000EE66E19EC20F0B8
:108B7000D8A4C0D11200000EEED7010EECD7100E13
:108B8000EAD7170EE8D7335004E1376A386A000B8A
:108B900012003750381004E1000B1200376A386AAF
:108BA000BBEC45F034E137C007F638C008F6010EDB
:108BB000E6EC1FF030E1000EE66E19EC20F0D8A4D0
:108BC00099D16550080AD8A495D137C0E9FF38502B
:108BD000010B0B0FEA6E66CFEEFF67CFEEFF68CF9B
:108BE000EEFF69CFEEFF6ACFEEFF6BCFEEFF6CCFEB
:108BF000EEFF6DCFEEFF080E3726D8B4382A375077
:108C00001F0BD1E1375005E13850FE0B02E0376A07
:108C1000386ABDEC45F0FF091200BBEC45F02CE1D1
:108C2000A96AA9CF07F6FF0EE8CF08F6010EE6EC19
